{
  "contractName": "Traceability",
  "abi": [
    {
      "inputs": [],
      "stateMutability": "nonpayable",
      "type": "constructor"
    },
    {
      "inputs": [],
      "name": "getProcessId",
      "outputs": [
        {
          "internalType": "uint256",
          "name": "",
          "type": "uint256"
        }
      ],
      "stateMutability": "view",
      "type": "function"
    },
    {
      "inputs": [
        {
          "internalType": "address",
          "name": "company_",
          "type": "address"
        },
        {
          "internalType": "uint256",
          "name": "IDProcess_",
          "type": "uint256"
        },
        {
          "internalType": "string",
          "name": "ProductClass_",
          "type": "string"
        },
        {
          "internalType": "string",
          "name": "name_",
          "type": "string"
        },
        {
          "internalType": "uint256",
          "name": "NumberProcess_",
          "type": "uint256"
        }
      ],
      "name": "setNewProcess",
      "outputs": [
        {
          "internalType": "bool",
          "name": "",
          "type": "bool"
        }
      ],
      "stateMutability": "nonpayable",
      "type": "function"
    },
    {
      "inputs": [
        {
          "internalType": "uint256",
          "name": "IDProcess_",
          "type": "uint256"
        }
      ],
      "name": "getProcess",
      "outputs": [
        {
          "internalType": "address",
          "name": "company_",
          "type": "address"
        },
        {
          "internalType": "uint256",
          "name": "IDProcess",
          "type": "uint256"
        },
        {
          "internalType": "string",
          "name": "ProductClass_",
          "type": "string"
        },
        {
          "internalType": "string",
          "name": "name_",
          "type": "string"
        },
        {
          "internalType": "uint256",
          "name": "NumberProcess_",
          "type": "uint256"
        },
        {
          "internalType": "uint256",
          "name": "Actualprocess_",
          "type": "uint256"
        },
        {
          "internalType": "bool",
          "name": "IsFinished_",
          "type": "bool"
        }
      ],
      "stateMutability": "view",
      "type": "function"
    },
    {
      "inputs": [
        {
          "internalType": "uint256",
          "name": "IDProcess_",
          "type": "uint256"
        },
        {
          "internalType": "uint256",
          "name": "Actualprocess_",
          "type": "uint256"
        }
      ],
      "name": "setnewProductionPhase",
      "outputs": [
        {
          "internalType": "bool",
          "name": "",
          "type": "bool"
        }
      ],
      "stateMutability": "nonpayable",
      "type": "function"
    }
  ],
  "bytecode": "0x608060405234801561001057600080fd5b50600160008190555033600160006101000a81548173ffffffffffffffffffffffffffffffffffffffff021916908373ffffffffffffffffffffffffffffffffffffffff160217905550610daf806100696000396000f3fe608060405234801561001057600080fd5b506004361061004c5760003560e01c80635775114114610051578063a7648d5814610081578063b3da94e91461009f578063d0851a71146100cf575b600080fd5b61006b60048036038101906100669190610775565b610105565b6040516100789190610843565b60405180910390f35b6100896101b2565b604051610096919061086d565b60405180910390f35b6100b960048036038101906100b49190610888565b6101bb565b6040516100c69190610843565b60405180910390f35b6100e960048036038101906100e491906108c8565b610262565b6040516100fc979695949392919061098c565b60405180910390f35b6000600160009054906101000a900473ffffffffffffffffffffffffffffffffffffffff1673ffffffffffffffffffffffffffffffffffffffff163373ffffffffffffffffffffffffffffffffffffffff1614610197576040517f08c379a000000000000000000000000000000000000000000000000000000000815260040161018e90610a7b565b60405180910390fd5b6101a4868686868661044e565b506001905095945050505050565b60008054905090565b6000600160009054906101000a900473ffffffffffffffffffffffffffffffffffffffff1673ffffffffffffffffffffffffffffffffffffffff163373ffffffffffffffffffffffffffffffffffffffff161461024d576040517f08c379a000000000000000000000000000000000000000000000000000000000815260040161024490610a7b565b60405180910390fd5b6102578383610560565b506001905092915050565b60008060608060008060006002600089815260200190815260200160002060000160009054906101000a900473ffffffffffffffffffffffffffffffffffffffff1696506002600089815260200190815260200160002060010180546102c790610aca565b80601f01602080910402602001604051908101604052809291908181526020018280546102f390610aca565b80156103405780601f1061031557610100808354040283529160200191610340565b820191906000526020600020905b81548152906001019060200180831161032357829003601f168201915b5050505050945060026000898152602001908152602001600020600401805461036890610aca565b80601f016020809104026020016040519081016040528092919081815260200182805461039490610aca565b80156103e15780601f106103b6576101008083540402835291602001916103e1565b820191906000526020600020905b8154815290600101906020018083116103c457829003601f168201915b5050505050935060026000898152602001908152602001600020600201549250600260008981526020019081526020016000206003015491506002600089815260200190815260200160002060050160009054906101000a900460ff169050879550919395979092949650565b6000856002600087815260200190815260200160002060000160006101000a81548173ffffffffffffffffffffffffffffffffffffffff021916908373ffffffffffffffffffffffffffffffffffffffff160217905550836002600087815260200190815260200160002060010190816104c89190610ca7565b50826002600087815260200190815260200160002060040190816104ec9190610ca7565b508160026000878152602001908152602001600020600201819055506001600260008781526020019081526020016000206003018190555060006002600087815260200190815260200160002060050160006101000a81548160ff0219169083151502179055506001905095945050505050565b60008160026000858152602001908152602001600020600301819055506001905092915050565b6000604051905090565b600080fd5b600080fd5b600073ffffffffffffffffffffffffffffffffffffffff82169050919050565b60006105c68261059b565b9050919050565b6105d6816105bb565b81146105e157600080fd5b50565b6000813590506105f3816105cd565b92915050565b6000819050919050565b61060c816105f9565b811461061757600080fd5b50565b60008135905061062981610603565b92915050565b600080fd5b600080fd5b6000601f19601f8301169050919050565b7f4e487b7100000000000000000000000000000000000000000000000000000000600052604160045260246000fd5b61068282610639565b810181811067ffffffffffffffff821117156106a1576106a061064a565b5b80604052505050565b60006106b4610587565b90506106c08282610679565b919050565b600067ffffffffffffffff8211156106e0576106df61064a565b5b6106e982610639565b9050602081019050919050565b82818337600083830152505050565b6000610718610713846106c5565b6106aa565b90508281526020810184848401111561073457610733610634565b5b61073f8482856106f6565b509392505050565b600082601f83011261075c5761075b61062f565b5b813561076c848260208601610705565b91505092915050565b600080600080600060a0868803121561079157610790610591565b5b600061079f888289016105e4565b95505060206107b08882890161061a565b945050604086013567ffffffffffffffff8111156107d1576107d0610596565b5b6107dd88828901610747565b935050606086013567ffffffffffffffff8111156107fe576107fd610596565b5b61080a88828901610747565b925050608061081b8882890161061a565b9150509295509295909350565b60008115159050919050565b61083d81610828565b82525050565b60006020820190506108586000830184610834565b92915050565b610867816105f9565b82525050565b6000602082019050610882600083018461085e565b92915050565b6000806040838503121561089f5761089e610591565b5b60006108ad8582860161061a565b92505060206108be8582860161061a565b9150509250929050565b6000602082840312156108de576108dd610591565b5b60006108ec8482850161061a565b91505092915050565b6108fe816105bb565b82525050565b600081519050919050565b600082825260208201905092915050565b60005b8381101561093e578082015181840152602081019050610923565b8381111561094d576000848401525b50505050565b600061095e82610904565b610968818561090f565b9350610978818560208601610920565b61098181610639565b840191505092915050565b600060e0820190506109a1600083018a6108f5565b6109ae602083018961085e565b81810360408301526109c08188610953565b905081810360608301526109d48187610953565b90506109e3608083018661085e565b6109f060a083018561085e565b6109fd60c0830184610834565b98975050505050505050565b7f4f6e6c792074686520436f6d70616e79207468617420697320646f696e67207460008201527f68652070726f636573732063616e20646f207468757320616374696f6e730000602082015250565b6000610a65603e8361090f565b9150610a7082610a09565b604082019050919050565b60006020820190508181036000830152610a9481610a58565b9050919050565b7f4e487b7100000000000000000000000000000000000000000000000000000000600052602260045260246000fd5b60006002820490506001821680610ae257607f821691505b602082108103610af557610af4610a9b565b5b50919050565b60008190508160005260206000209050919050565b60006020601f8301049050919050565b600082821b905092915050565b600060088302610b5d7fffffffffffffffffffffffffffffffffffffffffffffffffffffffffffffffff82610b20565b610b678683610b20565b95508019841693508086168417925050509392505050565b6000819050919050565b6000610ba4610b9f610b9a846105f9565b610b7f565b6105f9565b9050919050565b6000819050919050565b610bbe83610b89565b610bd2610bca82610bab565b848454610b2d565b825550505050565b600090565b610be7610bda565b610bf2818484610bb5565b505050565b5b81811015610c1657610c0b600082610bdf565b600181019050610bf8565b5050565b601f821115610c5b57610c2c81610afb565b610c3584610b10565b81016020851015610c44578190505b610c58610c5085610b10565b830182610bf7565b50505b505050565b600082821c905092915050565b6000610c7e60001984600802610c60565b1980831691505092915050565b6000610c978383610c6d565b9150826002028217905092915050565b610cb082610904565b67ffffffffffffffff811115610cc957610cc861064a565b5b610cd38254610aca565b610cde828285610c1a565b600060209050601f831160018114610d115760008415610cff578287015190505b610d098582610c8b565b865550610d71565b601f198416610d1f86610afb565b60005b82811015610d4757848901518255600182019150602085019450602081019050610d22565b86831015610d645784890151610d60601f891682610c6d565b8355505b6001600288020188555050505b50505050505056fea264697066735822122071fc9bc498ff36b3dbcef176b4c149545e1a334a3bb733da8fa36ebbac98c82664736f6c634300080f0033",
  "immutableReferences": {},
  "source": "// SPDX-License-Identifier: MIT\r\n\r\npragma solidity ^0.8.7;\r\n\r\nimport \"./mapping.sol\";\r\nimport \"./mapping_process.sol\";\r\n\r\ncontract Traceability is InfoProcess {\r\n\r\n    uint256 private _idProcess;\r\n    address private _owner;\r\n\r\n    mapping(uint256 => Process) private process;\r\n\r\n    constructor() {\r\n        _idProcess=1;\r\n        _owner=msg.sender;\r\n    }\r\n\r\n    modifier onlyOwner() {\r\n        require( msg.sender == _owner, \"Only the Company that is doing the process can do thus actions\");\r\n        _;\r\n    }\r\n\r\n    function getProcessId() external view returns (uint256) {\r\n        return _idProcess;\r\n    }\r\n\r\n    function setNewProcess(address company_, uint256 IDProcess_, string memory ProductClass_, string memory name_, uint256 NumberProcess_) public onlyOwner returns  (bool) {\r\n\t\t_setNewProcess(company_, IDProcess_, ProductClass_, name_, NumberProcess_);\r\n\t\treturn true;\r\n\t}\r\n\tfunction _setNewProcess(address company_, uint256 IDProcess_, string memory ProductClass_,string memory name_, uint256 NumberProcess_) internal  returns  (bool) {\r\n\t\tprocess[IDProcess_]._company = company_;\r\n\t\tprocess[IDProcess_]._ProductClass = ProductClass_;\r\n\t\tprocess[IDProcess_]._name = name_;\r\n\t\tprocess[IDProcess_]._NumberProcess = NumberProcess_;\r\n        process[IDProcess_]._ActualProcess = 1;\r\n\t\tprocess[IDProcess_]._IsFinished = false;\r\n\t\treturn true;\r\n\t}\r\n\t\r\n\tfunction getProcess(uint256 IDProcess_) external view returns (address company_, uint256 IDProcess, string memory ProductClass_,string memory name_, uint256 NumberProcess_, uint256 Actualprocess_, bool IsFinished_){\r\n\t    company_ = process[IDProcess_]._company ;\r\n\t\tProductClass_ = process[IDProcess_]._ProductClass ;\r\n\t\tname_ = process[IDProcess_]._name ;\r\n\t\tNumberProcess_ = process[IDProcess_]._NumberProcess;\r\n        Actualprocess_ = process[IDProcess_]._ActualProcess;\r\n\t\tIsFinished_ = process[IDProcess_]._IsFinished ;\r\n\t\tIDProcess = IDProcess_;\r\n\t}\r\n\r\n    function setnewProductionPhase(uint256 IDProcess_, uint256 Actualprocess_) public onlyOwner returns (bool) {\r\n        _setnewProductionPhase(IDProcess_, Actualprocess_);\r\n        return true;\r\n    }\r\n\r\n    function _setnewProductionPhase(uint256 IDProcess_, uint256 Actualprocess_) internal returns (bool) {\r\n        process[IDProcess_]._ActualProcess = Actualprocess_;\r\n        return true;\r\n    }\r\n\r\n}",
  "sourcePath": "C:\\Users\\marti\\Documents\\Negocis\\Experto Universitario en Desarrollo de Aplicaciones Blockchain\\Temas\\49f51637-Trabajo_Final_de_Experto_BLO__PER6061_20222023-martiprat.mp@gmail.com\\Traceability_Process_TFE\\TFE\\contracts\\main.sol",
  "compiler": {
    "name": "solc",
    "version": "0.8.15+commit.e14f2714.Emscripten.clang"
  },
  "schemaVersion": "3.4.8",
  "updatedAt": "2022-07-04T18:04:38.770Z",
  "devdoc": {
    "kind": "dev",
    "methods": {},
    "version": 1
  },
  "userdoc": {
    "kind": "user",
    "methods": {},
    "version": 1
  }
}